:400000000080002011000000050600000506000008B5044B1A6803F53F5302331A6000F0F3FA00BFFA46004010B5054C237833B9044B13B10448AFF300800123237010BD74
:400040002881FF1F00000000AC160000084B10B51BB108480849AFF300800848036803B910BD074B002BFBD0BDE81040184700BF00000000AC1600002C81FF1F0881FF1F7D
:40008000000000002DE9F84301F0CCF962B600263546344623E00125052420E002241EE003241CE00225052419E00325052416E00026012413E00026042505240FE0032411
:4000C0000DE0002501240AE00025012407E00025032404E00025012401E000250324012001F076FA012001F07FFA012001F088FA052C00F26D81DFE814F00600250051000E
:400100008400C4000B0100F01FFC00F0B7FD00F025FE204600F028FA00F0CAFF012001F0F1F8FD2001F0F2F9322001F09FF8002001F0E8F8FA2001F0E9F9002001F0E6F9DC
:400140000124CCE700200146024600F029FA00F0FBFB00F093FD00F001FE204600F004FA002001F0CFF8002001F00EFA012001F017FA002001F020FA012001F029FA0120A7
:4001800001F032FA012001F03BFA01F0CFF8002881D101F0C3F8002880D1A0E700F0D4FB00F06CFD00F0DAFD204600F0DDF9002001F0EAF9002001F0F3F9012001F0FCF9FA
:4001C000012001F005FA012001F00EFA012001F017FA002001F096F80024012000210A4600F0DEF9844B1B78DBB2192B3FF658AF01340A2C3FF456AF4FF47A7001F036F837
:40020000EBE700F0A1FB00F039FD00F0A7FD204600F0AAF9012001F0B7F9012001F0C0F9002001F0C9F9012001F0D2F9012001F0DBF9012001F0E4F9002001F063F801F03E
:4002400075F898B14FF47A7001F010F800F0D2F901287FF42AAF01F055F84FF47A7001F005F8002001F04EF8042438E701F056F8614B1B78DBB2002818BF192B7FF618AFF1
:400280002DE7204600F070F9012001F07DF9002001F086F9012001F08FF9012001F098F9012001F0A1F9012001F0AAF90136642E05D9514B58885FFA80F9002601E04FF07A
:4002C000FF094D4B9888DF88BFB2B3F808801FFA88F8C0B201F01AF901203946424600F05FF900F07BF9B0FA80F04009B9F1FF0F18BF40F0010000287FF4DDAE01F00EF810
:4003000000B9012401F012F800283FF4D8AEE6E600F01AFB00F0B2FC00F020FD204600F023F9012001F030F9012001F039F9012001F042F9012001F04BF9012001F054F994
:40034000012001F05DF9002001F01EF94FF47A7000F08CFF012001F017F94FF47A7000F085FF002000F0CEFF012D05D100F0DEFF00283FF4A6AEB2E6022D0AD100F0D6FFBE
:4003800000287FF4ACAE00F0C9FF00283FF49CAEA5E6032D05D100F0C9FF00283FF497AE9DE6042D7FF49BAE01203946424600F0F7F8C82000F05AFF00F010F900287FF4C6
:4003C00089AE0D4B5B889BB2FF2B7FF488AE84E6012001F0D9F8012001F0E2F8012001F0EBF8012001F0F4F8012001F0FDF8012001F006F973E600BF4481FF1F0122014BBD
:400400001A7070475281FF1F84B08DE80F009DF80B30DBB2034A13709DF80F30024A138004B070474481FF1F4881FF1F0122014B1A7070475381FF1F84B08DE80F009DF8CE
:400440000B30024A138004B0704700BF4681FF1F84B08DE80F009DF80B30024A138004B0704700BF5081FF1F84B08DE80F009DF80A30044A13809DF80930034A138004B009
:40048000704700BF4A81FF1F4C81FF1F84B000B585B00DF1180E8EE80F000E9B40F2012293422AD005DCA62B18D0B3F5007F2DD034E040F26662934216D040F22672934238
:4004C0000FD040F26652934228D10AAB0FCB8DE80F0006AB0FCBFFF797FF1FE0FFF7A6FF1CE0FFF78BFF19E00AAB0FCB8DE80F0006AB0FCBFFF7A0FF10E00AAB0FCB8DE805
:400500000F0006AB0FCBFFF7A3FF07E00AAB0FCB8DE80F0006AB0FCBFFF7A6FF05B05DF804EB04B0704700BF00B587B0039100238DF810308DF8113008228DF812208DF8B2
:40054000133001AA059206E0C15C06AA1A4402F8141C0133DBB2072BF6D903A800F03EFC07B05DF804FB00BF00B583B08DF8000000238DF801308DF802308DF803308DF820
:4005800004308DF805308DF806308DF80730684640F22661FFF7C8FF03B05DF804FB00BF00B583B08DF800008DF801108DF8022000238DF803308DF804308DF805308DF86F
:4005C00006308DF80730684640F26671FFF7ACFF012000F04BFE03B05DF804FB044B1878C0B2012802D100221A707047002070475281FF1F024B188800221A8080B2704746
:400600005081FF1FFEE700BF08B5104E104D16E029686B68AC68002204E051F8040B43F8040B0432A242F8D1E868002203E0002143F8041B04328242F9D11035013E002E70
:40064000E6D100F0F9FFFFF71DFDFEE7010000000419000008B5134A134B1A60134A136843F40073136000230AE0032B03D8104A52F8231000E00F490F4A42F823100133C2
:400680002F2BF2D90D4B1A780D4B1A700A4A0D4B1A6000F0BBF800F019FD00220A4B1A6008BD00BF0004FA050CED00E014ED00E000000000050600000080FF1FBC7600402D
:4006C0000481FF1F08ED00E00081FF1FFEE700BFF0B40022174611E050F82760F3B226F0FF0608E001EB420511F812406D78A5550132013BDBB2002BF4D10137142FEBD91C
:40070000F0BC70470A4B1B78DBB203F00701094A11701B09013213702022074B1A70022203F66B131A706622A3F212231A707047CF0100496E5800401D51004008B50A4688
:40074000002100F0AAFF08BD38B57722254B1A80192502331D7045F6BF5202331A8002331D70062203F27A231A700222A3F580731A701D4B1B78DBB21C4A13704FF4E16219
:400780001B4B1A8041F25122023B1A8000240CE0184B1B7803F0010343EA440404F003044FF4F07000F038FF013D0DB1032CEFD115B90320FFF78AFF0F4B4FF480721A8001
:4007C00007221A7000220D490A704820023108701A700222033B1A70094A137843F00303137038BD804000400B010049A1460040224200402542004004400040064000406B
:40080000A243004008B500F03DFF08BD70B572B6364A137843F00403137000240CE0344963001A1952000A4423445B00C8589188FFF784FF0134E4B2082CF0D94FF09040C2
:400840002C49FFF745FF2C480421FFF777FF2B480421FFF773FF2A4A137843F0020313701032137843F002031370264C237843F040032370A2F58632513A137843F01003C1
:400880001370214821490A22FFF7BCFF204821490A22FFF7B7FF204820490822FFF7B2FF1F4820490822FFF7ADFF1F481F490A22FFF7A8FF1E481F490822FFF7A3FF1E4A8D
:4008C000137843F0080313701C4E01253570FFF73BFF812333701A4B1D70FFF713FF194821460E22FFF78EFF70BD00BFE8460040B01600005400004800760040087600405B
:4009000003500140A0430040C0510040CC00004810510040D800004822510040E400004832510040EC00004850510040F4000048625100400001004822430040004800407E
:4009400004000840B0430040064B1A7842F001021A701B7813F0010F01D1012070470020704700BF04A0004008B500F05DFE154A137843F0010313701032137843F00103DC
:40098000137000F055FE41F201020F4B1A60FFF7DBFF4FF480320D4B1A600D4A136843F0010313604FF4107300E0013B23B1084A126812F0010FF8D00BB9012008BD00202E
:4009C00008BD00BFA643004000A0004000E100E010A0004010F4004F07D1064B18801B889BB2834203D001207047022070470020704700BF16A0004050B90D4B5A7802F0BB
:400A0000EF025A705B7813F0100F0CD001207047074B5A7842F010025A705B7813F0100F03D101207047002070470020704700BF14A0004030B4841EE4B20D2C28D88C1E1F
:400A4000E4B2052C02D92BBB012925D1032A25D8824225D88A4225D8164C657805F0F005284360706478E4B284421DD10BB9002000E002204B01DBB29200D2B2134303431F
:400A80000C4A13701278D2B29A420FD001200EE002200CE002200AE0022008E0022006E0022004E0022002E0012000E0002030BC704700BF14A0004050B90D4B1A7802F0F3
:400AC000EF021A701B7813F0100F0CD001207047074B1A7842F010021A701B7813F0100F03D101207047002070470020704700BF14A0004050B90D4B1A7802F0FE021A702F
:400B00001B7813F0010F0CD001207047074B1A7842F001021A701B7813F0010F03D101207047002070470020704700BF14A00040044B18801B889BB2834201D001207047C0
:400B40000020704704A0004003785B01214A416841F08011995003785B0199189A5802F07F12436823F080139A4228D183680B610278184B03EB421319698268914220D15A
:400B8000C2685A610278134B03EB42135969C268914218D14FF0FF329A6102780D4B03EB42139A69B2F1FF3F0FD10022DA610278084B03EB4213DB694BB1012070470120A3
:400BC00070470120704701207047012070470020704700BFA0A0004001780901114A436843F4000343F008038B5003781B0199189B580D4A1A40436823F4000323F00803F5
:400C00009A420BD183684B600278064B03EB02135A6883689A4203D001207047012070470020704720A00040F7007F0038B5002409E004EB44039B000E481844FFF7CCFF01
:400C400028B90134E4B2072CF3D9002500E001254DB10DE0084800EB0410FFF775FF30B90134E4B200E000240F2CF3D900E00125284638BDE81600004817000008B500F0C8
:400C8000D3FC324A137843F0010313701032137843F00103137000F0CBFC2D4A137803F0FE0313704FF4F05300E0013B23B1284A127812F0010FF8D1002B3CD04FF4803274
:400CC000244B1A601020244900F0F0FA1020072100F000FB0220FFF77DFE88B9FFF78CFE80B90A20032100221346FFF7A3FE58B9FFF7E2FE50B9FFF7FDFE48B1012308E07E
:400D0000012306E0012304E0012302E0012300E0002393B9FFF78AFF88B941F20100FFF707FF70B90A4B00221A701B7813F0010F09D0012008BD012008BD012008BD0120BC
:400D400008BD012008BD002008BD00BFA643004010A0004080E100E0C50D000008B5074B1B7813B9FFF78AFF00E0002020B90122024B1A70FFF7F8FD08BD00BF5481FF1FD6
:400D800038B510220C4B5A700125002410E00B4B1B881D4208D06301094A9B5C13F0200F02D0204600F088F86D00ADB20134E4B20F2CECD938BD00BF00A0004008A00040EE
:400DC000A0A0004008B5044B5B7813F0100F01D0FFF7D6FF08BD00BF00A00040F0B5012100265DE017F0030F4DD12F4B9B783B4249D103790BB14FF40013417931B92B4947
:400E000001EB0211046864054C6007E043F48013264901EB02110468E4004C6090F806E0BEF1070F02D843EA0E4E01E043F4002EC3790BB14EF0040E00230FE01B4901EB91
:400E40000214032B02D9C3F10B0101E0C3F103018568ED5C21440D720133DBB28179994201D9072BEAD94FF48034114B1C6011010E4D4EF4000343F008034B5101234B5160
:400E80000C4B1C6000217B00DFB231B10132D2B201E001270022072AA4D919B10136F6B2022EF6D90846F0BD08A0004020A0004080E100E000E100E070B586B046010F4D35
:400EC0007419735D13F0010F16D0A37813F0100F02D06368DB0801E063685B0D049304F110030FCB8DE80F0094E80F00FFF7CEFA735D43F00103735506B070BDA0A0004053
:400F000010B50B4C237803F09F032370237803F0F00323702378184340F010002070012000F0BAF9237803F0EF03237010BD00BF2051004070B5354B1A7802F08002D2B2B5
:400F40001A7033490A7802F0F00242F00F020A7001310A7802F0F0020A7001310A7802F0F0020A701A7802F0DF021A701A7842F040021A704FF4CA76002000F08DF9234D1C
:400F80002B7843F010032B70012000F085F9214B1C78E4B22B7803F0EF032B70002000F07BF904F00804E4B22B7843F010032B70012000F071F92B7803F0EF032B7014B95C
:400FC0000A2000F069F9013E0CB1002ED4D10F4A137803F0BF031370137803F08003DBB213700232137803F0F00313700132137803F0F00343F00F0313700132137803F034
:40100000F00343F00F03137070BD00BF20510040225100402151004010B50446FFF78AFF2009FFF76DFF04F00F00FFF769FF10BD08B5282000F01AF90320FFF761FF052006
:4010400000F014F90320FFF75BFF0F2000F00EF90320FFF755FF012000F008F90220FFF74FFF052000F002F90620FFF7D5FF0E20FFF7D2FF2C20FFF7CFFF0820FFF7CCFF07
:401080000120FFF7C9FF0C20FFF7C6FF0320FFF7C3FF052000F0EAF808BD00BF08B50C20FFF7BAFF0122014B1A7008BD5581FF1F08B5054B5B7823B9FFF7BAFF0122024BEF
:4010C0005A70FFF7EBFF08BD5581FF1F0B4A7F2313708021517007E0DA0002F1804202F5F042013BDBB21370002BF5D1DB0003F1804303F5F04300221A7070470C81FF1F0A
:40110000172815D831B103010A495A5C42F020025A5405E0030107495A5C02F0DF025A540001044A835C43F00103835400207047012070471070004017280BD80001064A04
:40114000835C03F0F10301F0070143EA4101815400207047012070471070004041F6FF73994201D14FF4005141F6FF739A4201D14FF40052172808D8C00000F1804000F5A2
:40118000EC408180C280002070470120704700BF172805D8034B03EB0010417200207047012070471070004017281BD810B4C00000F1804404F5EC44D201D2B201F07F016C
:4011C000114321709DF804201201D2B203F00F03134363709DF8083003F00F03A3700020E07001E0012070475DF8044B704700BF10B500F019FA0A4B5B78182B0BD9084AFB
:401200001478013B5370E30003F1804303F5F0431B78137000E0FF2400F00AFA204610BD0C81FF1F10F0800F0CD111F4704F0BD1C00000F1804000F5F04001808270C3702B
:4012400000207047012070470120704710F0800F08D1C00000F1804000F5F0408180C280002070470120704701BE704710B5044605E0084B186800F0CFF9A4F50044B4F57C
:40128000004FF6D8034B586800FB04F000F0C4F910BD00BF1481FF1F08B5034B1B7A03FB00F000F0B9F908BD1481FF1F70B504460E46074B1D681F2802D90020FFF7D4FFDB
:4012C00004F01F04103455F8240045F8246070BD08ED00E038B504460D46072902D90020FFF7C2FF1F2C02D90020FFF7BDFF04F01F0000F1604000F564406D01EDB205703C
:4013000038BD00BF044A137803F0FB03800000F0040018431070704730510040024B1878C0F34000704700BF31510040024B187800F00100704700BF3151004010B500F0A5
:40134000C9F8074C20780121FFF7DAFE60780121FFF7D6FE002000F0D9F800F071F810BD5781FF1F70B505460E46012001462A0C4FF4804300F072F8094C2070A2781046F9
:4013800031460123FFF74EFFA078A9B245F68132FFF75CFF2078A178FFF7FAFE70BD00BF5781FF1F70B505460E46012001462A0C4FF4804300F070F8094C6070E278104687
:4013C00031460123FFF72EFFE078A9B245F68132FFF73CFF6078E178FFF7DAFE70BD00BF5781FF1F10B500F0B9F8022000F080F8042000F0A3F8FFF7FBFE084CA070FFF794
:40140000F7FEE070064C20463221FFF7ABFF04F134006421FFF7C6FF10BD00BF5781FF1F4818000008B5054B1B7923B9FFF7DAFF0122024B1A71FFF781FF08BD5781FF1FF9
:40144000054A137843F0010313701032137843F001031370704700BFA2430040F0B583B086460F4616461D460A4C0023237000930193184671463A46FFF796FE207831469D
:401480002A46FFF76BFE20780221FFF755FE207803B0F0BD2481FF1FF0B583B086460F4616461D460A4C0120207000230093019371463A46FFF778FE207831462A46FFF77D
:4014C0004DFE20780221FFF737FE207803B0F0BD2581FF1F054A137843F0020313701032137843F002031370704700BFA8430040054B1A7802F0FD021A701A7800F0020060
:4015000010431870704700BF24580040014B1870704700BF815B0040064B1B78C3F3810303F19243063393F83031DBB2024A1370704700BF245800400946004008B5064B01
:401540001A7802F0F3021A701A7800F00C0010431870FFF7E1FF08BD2458004008B50020074B187001331870064A137843F008031370FFF7E3FF0220FFF7BAFF08BD00BF6C
:40158000245800408F5A0040044A137803F0BF03800100F0400018431070704710510040044A137803F07F03C001C0B203431370704700BF10510040044A137803F0BF03E5
:4015C000800100F04000184310707047C0510040044A137803F0DF03400100F0200018431070704750510040044A137803F0BF03800100F040001843107070475051004033
:40160000044A137803F07F03C001C0B203431370704700BF505100400230800803D000BF01380046FCD17047EFF3108072B6704780F31088704700BF0E4B70B51E460E4CAC
:401640000025E41AA410A54204D056F8253098470135F8E700F044F9084B094C1E46E41AA4100025A54204D056F8253098470135F8E770BDEC180000EC180000EC180000A6
:40168000F418000010B5431E0A44914204D011F8014B03F8014FF8E710BD03460244934202D003F8011BFAE77047000000000000004F00400C0000510040100040510040C5
:4016C0001000F0510040100000000140001000140140000800400140000A004C01400002005001402000000000000000000001000000C0C401000000000008000000C0EC96
:40170000020000000000000000000000030000000000000000000000040000000000000000000000050000000000000000000000060000000000000000000000070000008E
:40174000000000000000000000000000A8008000FFFFFFFF0000000001000000A8008000FFFFFFFF0000000002000000A8008000FFFFFFFF0000000003000000A8008000CF
:40178000FFFFFFFF0000000004000000A8008000FFFFFFFF0000000005000000A8008000FFFFFFFF0000000006000000A8008000FFFFFFFF0000000007000000A800800083
:4017C000FFFFFFFF0000000008000000A8008000FFFFFFFF0000000009000000A8008000FFFFFFFF000000000A000000A8008000FFFFFFFF000000000B000000A800800033
:40180000FFFFFFFF000000000C000000A8008000FFFFFFFF000000000D000000A8008000FFFFFFFF000000000E000000A8008000FFFFFFFF000000000F000000A8008000E2
:40184000FFFFFFFF00000000BCC3CBD3DAE0E6ECF0F4F7F9FAFAF9F7F4F0ECE6E0DAD3CBC3BCB4ACA49D97918B8783807E7D7D7E8083878B91979DA4ACB40000BCBDBFC1D3
:40188000C3C5C7C9CBCCCECFD1D2D4D5D6D7D8D9D9DADADBDBDBDBDBDADAD9D9D8D7D6D5D4D2D1CFCECCCBC9C7C5C3C1BFBDBCBAB8B6B4B2B0AEACABA9A8A6A5A3A2A1A07D
:4018C0009F9E9E9D9D9C9C9C9C9C9D9D9E9E9FA0A1A2A3A5A6A8A9ABACAEB0B2B4B6B8BAF8B500BFF8BC08BC9E4670474D00000055060000F8B500BFF8BC08BC9E467047A7
:4019000029000000181900000881FF1F200000003800000000000000000000007F800000030000000000E02EC05D00001800000000366E01FFFF0000000000000000000066
:401940000000000000000000000000000000000000000000000000000000000000000000000000000000000000000000000000000000000000000000000000000000000067
:401980000000000000000000000000000000000000000000000000000000000000000000000000000000000000000000000000000000000000000000000000000000000027
:4019C00000000000000000000000000000000000000000000000000000000000000000000000000000000000000000000000000000000000000000000000000000000000E7
:401A000000000000000000000000000000000000000000000000000000000000000000000000000000000000000000000000000000000000000000000000000000000000A6
:020000040003F7
:0200000480007A
:40000000024F004002520040015A00400107014001090140040A0140010B014003150140031B01400440014002410140064201400343014002450140014601400147014066
:400040000348014008490140014C0140094D01400251014001100A4B19101C038F01EE08AF20B820BE10D804DF011F20E004E610EC10E004E610EC1032803D80CC10CE2020
:40008000A540A68012806302A540A680C410D640A540AF01EE103020CC08A420A4202550A540C8200E40620482408E04B510C220D840E020A4201A107B4083408E10B42023
:4000C000C608DE02E608EC0800021002400000404000000000000000C00000CBCB00000020000000007F7F00000000002314140010000000E00000E0E0000000000000002D
:4001000000010100000000000000000000000000000000000000000000000000000000000000000000000000000000000000000000000000000000000000000000000000BD
:40014000000000000000000000000000000000000000000000000000000000000000000000000000000000000000000000000000000000000000000000000000000000007F
:40018000000000000000000000000000000000000000000000000000000000000000000000000000000000000000000000000000000000000000000000000000000000003F
:4001C00000000000000000000000000000000000000000000000000000000000000000000000000000000000000000000000000000000000000000000000000000000000FF
:4002000000000000000000000000000000000000000000000000000000000000000000000000000000000000000000000000000000000000000000000000000000000000BE
:0200000490006A
:0400000000004005B7
:0200000490105A
:04000000BC90ACAF55
:0200000490303A
:02000000C51128
:0200000490402A
:4000000000000000000000000000000000000000000000000000000000000000000000000000000000000000000000000000000000000000000000000000000000000000C0
:400040000000000000000000000000000000000000000000000000000000000000000000000000000000000000000000000000000000000000000000000000000000000080
:400080000000000000000000000000000000000000000000000000000000000000000000000000000000000000000000000000000000000000000000000000000000000040
:4000C0000000000000000000000000000000000000000000000000000000000000000000000000000000000000000000000000000000000000000000000000000000000000
:0200000490501A
:0C00000000012E12306900012E1BF57A61
:00000001FF